{
  "contractName": "ProductVerification",
  "abi": [
    {
      "inputs": [],
      "stateMutability": "nonpayable",
      "type": "constructor"
    },
    {
      "anonymous": false,
      "inputs": [
        {
          "indexed": false,
          "internalType": "string",
          "name": "reason",
          "type": "string"
        }
      ],
      "name": "ErrorLogging",
      "type": "event"
    },
    {
      "anonymous": false,
      "inputs": [
        {
          "indexed": false,
          "internalType": "string",
          "name": "reason",
          "type": "string"
        }
      ],
      "name": "ErrorLoggingWhileUpdating",
      "type": "event"
    },
    {
      "inputs": [
        {
          "internalType": "uint256",
          "name": "",
          "type": "uint256"
        },
        {
          "internalType": "uint256",
          "name": "",
          "type": "uint256"
        }
      ],
      "name": "products",
      "outputs": [
        {
          "internalType": "string",
          "name": "name",
          "type": "string"
        },
        {
          "internalType": "uint256",
          "name": "manufacturingDate",
          "type": "uint256"
        },
        {
          "internalType": "uint256",
          "name": "transferDate",
          "type": "uint256"
        },
        {
          "internalType": "uint256",
          "name": "expiryDate",
          "type": "uint256"
        },
        {
          "internalType": "string",
          "name": "currentOwner",
          "type": "string"
        },
        {
          "internalType": "string",
          "name": "OwnerlicenseNumber",
          "type": "string"
        },
        {
          "internalType": "address",
          "name": "currentOwnerHash",
          "type": "address"
        },
        {
          "internalType": "string",
          "name": "MedicineID",
          "type": "string"
        },
        {
          "internalType": "string",
          "name": "qrCode",
          "type": "string"
        }
      ],
      "stateMutability": "view",
      "type": "function",
      "constant": true
    },
    {
      "inputs": [
        {
          "internalType": "string",
          "name": "_name",
          "type": "string"
        },
        {
          "internalType": "uint256",
          "name": "_manufacturingDate",
          "type": "uint256"
        },
        {
          "internalType": "uint256",
          "name": "_transferDate",
          "type": "uint256"
        },
        {
          "internalType": "uint256",
          "name": "_expiryDate",
          "type": "uint256"
        },
        {
          "internalType": "string",
          "name": "_currentOwner",
          "type": "string"
        },
        {
          "internalType": "string",
          "name": "_licenseNumber",
          "type": "string"
        },
        {
          "internalType": "string",
          "name": "_qrCode",
          "type": "string"
        },
        {
          "internalType": "string",
          "name": "_medicineID",
          "type": "string"
        },
        {
          "internalType": "address",
          "name": "_currentOwnerHash",
          "type": "address"
        }
      ],
      "name": "addProduct",
      "outputs": [],
      "stateMutability": "payable",
      "type": "function",
      "payable": true
    },
    {
      "inputs": [
        {
          "internalType": "uint256",
          "name": "index",
          "type": "uint256"
        },
        {
          "internalType": "uint256",
          "name": "_transferDate",
          "type": "uint256"
        },
        {
          "internalType": "string",
          "name": "_updateOwner",
          "type": "string"
        },
        {
          "internalType": "string",
          "name": "_licenseNumber",
          "type": "string"
        },
        {
          "internalType": "address",
          "name": "_updateOwnerHash",
          "type": "address"
        }
      ],
      "name": "updateOwnership",
      "outputs": [],
      "stateMutability": "payable",
      "type": "function",
      "payable": true
    },
    {
      "inputs": [],
      "name": "returnSize",
      "outputs": [
        {
          "internalType": "uint256",
          "name": "",
          "type": "uint256"
        }
      ],
      "stateMutability": "view",
      "type": "function",
      "constant": true
    },
    {
      "inputs": [
        {
          "internalType": "uint256",
          "name": "index",
          "type": "uint256"
        }
      ],
      "name": "returnDetails",
      "outputs": [
        {
          "components": [
            {
              "internalType": "string",
              "name": "name",
              "type": "string"
            },
            {
              "internalType": "uint256",
              "name": "manufacturingDate",
              "type": "uint256"
            },
            {
              "internalType": "uint256",
              "name": "transferDate",
              "type": "uint256"
            },
            {
              "internalType": "uint256",
              "name": "expiryDate",
              "type": "uint256"
            },
            {
              "internalType": "string",
              "name": "currentOwner",
              "type": "string"
            },
            {
              "internalType": "string",
              "name": "OwnerlicenseNumber",
              "type": "string"
            },
            {
              "internalType": "address",
              "name": "currentOwnerHash",
              "type": "address"
            },
            {
              "internalType": "string",
              "name": "MedicineID",
              "type": "string"
            },
            {
              "internalType": "string",
              "name": "qrCode",
              "type": "string"
            }
          ],
          "internalType": "struct Product_Lib.Product[]",
          "name": "",
          "type": "tuple[]"
        }
      ],
      "stateMutability": "view",
      "type": "function",
      "constant": true
    },
    {
      "inputs": [
        {
          "internalType": "uint256",
          "name": "index",
          "type": "uint256"
        }
      ],
      "name": "currentOwner",
      "outputs": [
        {
          "components": [
            {
              "internalType": "string",
              "name": "name",
              "type": "string"
            },
            {
              "internalType": "uint256",
              "name": "manufacturingDate",
              "type": "uint256"
            },
            {
              "internalType": "uint256",
              "name": "transferDate",
              "type": "uint256"
            },
            {
              "internalType": "uint256",
              "name": "expiryDate",
              "type": "uint256"
            },
            {
              "internalType": "string",
              "name": "currentOwner",
              "type": "string"
            },
            {
              "internalType": "string",
              "name": "OwnerlicenseNumber",
              "type": "string"
            },
            {
              "internalType": "address",
              "name": "currentOwnerHash",
              "type": "address"
            },
            {
              "internalType": "string",
              "name": "MedicineID",
              "type": "string"
            },
            {
              "internalType": "string",
              "name": "qrCode",
              "type": "string"
            }
          ],
          "internalType": "struct Product_Lib.Product",
          "name": "",
          "type": "tuple"
        }
      ],
      "stateMutability": "view",
      "type": "function",
      "constant": true
    }
  ],
  "bytecode": "0x60806040523480156200001157600080fd5b50600073ffffffffffffffffffffffffffffffffffffffff163373ffffffffffffffffffffffffffffffffffffffff160362000084576040517f08c379a00000000000000000000000000000000000000000000000000000000081526004016200007b9062000136565b60405180910390fd5b33600160006101000a81548173ffffffffffffffffffffffffffffffffffffffff021916908373ffffffffffffffffffffffffffffffffffffffff160217905550620186a060008190555062000158565b600082825260208201905092915050565b7f6e6f2d6f776e65722d70726f7669646564000000000000000000000000000000600082015250565b60006200011e601183620000d5565b91506200012b82620000e6565b602082019050919050565b6000602082019050818103600083015262000151816200010f565b9050919050565b6131a080620001686000396000f3fe6080604052600436106100555760003560e01c806347cb00e71461005a5780635a19cc2e1461007657806396eaede7146100b3578063a590fbdb146100cf578063def2a2f914610114578063e54511031461013f575b600080fd5b610074600480360381019061006f9190611966565b61017c565b005b34801561008257600080fd5b5061009d60048036038101906100989190611a19565b610871565b6040516100aa9190611c8f565b60405180910390f35b6100cd60048036038101906100c89190611cb1565b610c32565b005b3480156100db57600080fd5b506100f660048036038101906100f19190611e07565b610eee565b60405161010b99989796959493929190611eaf565b60405180910390f35b34801561012057600080fd5b50610129611221565b6040516101369190611f5f565b60405180910390f35b34801561014b57600080fd5b5061016660048036038101906101619190611a19565b61122a565b604051610173919061205b565b60405180910390f35b600060026000878152602001908152602001600020805480602002602001604051908101604052809291908181526020016000905b828210156105325783829060005260206000209060090201604051806101200160405290816000820180546101e5906120ac565b80601f0160208091040260200160405190810160405280929190818152602001828054610211906120ac565b801561025e5780601f106102335761010080835404028352916020019161025e565b820191906000526020600020905b81548152906001019060200180831161024157829003601f168201915b50505050508152602001600182015481526020016002820154815260200160038201548152602001600482018054610295906120ac565b80601f01602080910402602001604051908101604052809291908181526020018280546102c1906120ac565b801561030e5780601f106102e35761010080835404028352916020019161030e565b820191906000526020600020905b8154815290600101906020018083116102f157829003601f168201915b50505050508152602001600582018054610327906120ac565b80601f0160208091040260200160405190810160405280929190818152602001828054610353906120ac565b80156103a05780601f10610375576101008083540402835291602001916103a0565b820191906000526020600020905b81548152906001019060200180831161038357829003601f168201915b505050505081526020016006820160009054906101000a900473ffffffffffffffffffffffffffffffffffffffff1673ffffffffffffffffffffffffffffffffffffffff1673ffffffffffffffffffffffffffffffffffffffff16815260200160078201805461040f906120ac565b80601f016020809104026020016040519081016040528092919081815260200182805461043b906120ac565b80156104885780601f1061045d57610100808354040283529160200191610488565b820191906000526020600020905b81548152906001019060200180831161046b57829003601f168201915b505050505081526020016008820180546104a1906120ac565b80601f01602080910402602001604051908101604052809291908181526020018280546104cd906120ac565b801561051a5780601f106104ef5761010080835404028352916020019161051a565b820191906000526020600020905b8154815290600101906020018083116104fd57829003601f168201915b505050505081525050815260200190600101906101b1565b505050509050600060405161054690611659565b604051809103906000f080158015610562573d6000803e3d6000fd5b5090508073ffffffffffffffffffffffffffffffffffffffff16634851df60836040518263ffffffff1660e01b815260040161059e9190611c8f565b60006040518083038186803b1580156105b657600080fd5b505afa9250505080156105c7575060015b610640576105d36120ea565b806308c379a00361062f57506105e761210c565b806105f25750610631565b7f614bff9c72d0eafafa0ec68b42e972173e16062f1c63e16ee4425368f370815481604051610621919061219c565b60405180910390a15061063b565b505b3d6000803e3d6000fd5b610868565b6002600088815260200190815260200160002060405180610120016040528084600081518110610673576106726121be565b5b602002602001015160000151815260200184600081518110610698576106976121be565b5b6020026020010151602001518152602001888152602001846000815181106106c3576106c26121be565b5b60200260200101516060015181526020018781526020018681526020018573ffffffffffffffffffffffffffffffffffffffff168152602001846000815181106107105761070f6121be565b5b602002602001015160e00151815260200184600081518110610735576107346121be565b5b602002602001015161010001518152509080600181540180825580915050600190039060005260206000209060090201600090919091909150600082015181600001908051906020019061078a929190611666565b5060208201518160010155604082015181600201556060820151816003015560808201518160040190805190602001906107c5929190611666565b5060a08201518160050190805190602001906107e2929190611666565b5060c08201518160060160006101000a81548173ffffffffffffffffffffffffffffffffffffffff021916908373ffffffffffffffffffffffffffffffffffffffff16021790555060e0820151816007019080519060200190610846929190611666565b50610100820151816008019080519060200190610864929190611666565b5050505b50505050505050565b606060026000838152602001908152602001600020805480602002602001604051908101604052809291908181526020016000905b82821015610c275783829060005260206000209060090201604051806101200160405290816000820180546108da906120ac565b80601f0160208091040260200160405190810160405280929190818152602001828054610906906120ac565b80156109535780601f1061092857610100808354040283529160200191610953565b820191906000526020600020905b81548152906001019060200180831161093657829003601f168201915b5050505050815260200160018201548152602001600282015481526020016003820154815260200160048201805461098a906120ac565b80601f01602080910402602001604051908101604052809291908181526020018280546109b6906120ac565b8015610a035780601f106109d857610100808354040283529160200191610a03565b820191906000526020600020905b8154815290600101906020018083116109e657829003601f168201915b50505050508152602001600582018054610a1c906120ac565b80601f0160208091040260200160405190810160405280929190818152602001828054610a48906120ac565b8015610a955780601f10610a6a57610100808354040283529160200191610a95565b820191906000526020600020905b815481529060010190602001808311610a7857829003601f168201915b505050505081526020016006820160009054906101000a900473ffffffffffffffffffffffffffffffffffffffff1673ffffffffffffffffffffffffffffffffffffffff1673ffffffffffffffffffffffffffffffffffffffff168152602001600782018054610b04906120ac565b80601f0160208091040260200160405190810160405280929190818152602001828054610b30906120ac565b8015610b7d5780601f10610b5257610100808354040283529160200191610b7d565b820191906000526020600020905b815481529060010190602001808311610b6057829003601f168201915b50505050508152602001600882018054610b96906120ac565b80601f0160208091040260200160405190810160405280929190818152602001828054610bc2906120ac565b8015610c0f5780601f10610be457610100808354040283529160200191610c0f565b820191906000526020600020905b815481529060010190602001808311610bf257829003601f168201915b505050505081525050815260200190600101906108a6565b505050509050919050565b6000604051610c40906116ec565b604051809103906000f080158015610c5c573d6000803e3d6000fd5b5090508073ffffffffffffffffffffffffffffffffffffffff16631502cf0b60026000805481526020019081526020016000206040518263ffffffff1660e01b8152600401610cab91906124ab565b60006040518083038186803b158015610cc357600080fd5b505afa925050508015610cd4575060015b610d4d57610ce06120ea565b806308c379a003610d3c5750610cf461210c565b80610cff5750610d3e565b7fdcbe72357183be3854887085e70fd914c4c1733a94106878f48e8ba069d8fabc81604051610d2e919061219c565b60405180910390a150610d48565b505b3d6000803e3d6000fd5b610ee2565b60026000805481526020019081526020016000206040518061012001604052808c81526020018b81526020018a81526020018981526020018881526020018781526020018473ffffffffffffffffffffffffffffffffffffffff1681526020018581526020018681525090806001815401808255809150506001900390600052602060002090600902016000909190919091506000820151816000019080519060200190610dfc929190611666565b506020820151816001015560408201518160020155606082015181600301556080820151816004019080519060200190610e37929190611666565b5060a0820151816005019080519060200190610e54929190611666565b5060c08201518160060160006101000a81548173ffffffffffffffffffffffffffffffffffffffff021916908373ffffffffffffffffffffffffffffffffffffffff16021790555060e0820151816007019080519060200190610eb8929190611666565b50610100820151816008019080519060200190610ed6929190611666565b505050610ee1611640565b5b50505050505050505050565b60026020528160005260406000208181548110610f0a57600080fd5b906000526020600020906009020160009150915050806000018054610f2e906120ac565b80601f0160208091040260200160405190810160405280929190818152602001828054610f5a906120ac565b8015610fa75780601f10610f7c57610100808354040283529160200191610fa7565b820191906000526020600020905b815481529060010190602001808311610f8a57829003601f168201915b505050505090806001015490806002015490806003015490806004018054610fce906120ac565b80601f0160208091040260200160405190810160405280929190818152602001828054610ffa906120ac565b80156110475780601f1061101c57610100808354040283529160200191611047565b820191906000526020600020905b81548152906001019060200180831161102a57829003601f168201915b50505050509080600501805461105c906120ac565b80601f0160208091040260200160405190810160405280929190818152602001828054611088906120ac565b80156110d55780601f106110aa576101008083540402835291602001916110d5565b820191906000526020600020905b8154815290600101906020018083116110b857829003601f168201915b5050505050908060060160009054906101000a900473ffffffffffffffffffffffffffffffffffffffff1690806007018054611110906120ac565b80601f016020809104026020016040519081016040528092919081815260200182805461113c906120ac565b80156111895780601f1061115e57610100808354040283529160200191611189565b820191906000526020600020905b81548152906001019060200180831161116c57829003601f168201915b50505050509080600801805461119e906120ac565b80601f01602080910402602001604051908101604052809291908181526020018280546111ca906120ac565b80156112175780601f106111ec57610100808354040283529160200191611217565b820191906000526020600020905b8154815290600101906020018083116111fa57829003601f168201915b5050505050905089565b60008054905090565b6112326116f9565b600060026000848152602001908152602001600020805480602002602001604051908101604052809291908181526020016000905b828210156115e857838290600052602060002090600902016040518061012001604052908160008201805461129b906120ac565b80601f01602080910402602001604051908101604052809291908181526020018280546112c7906120ac565b80156113145780601f106112e957610100808354040283529160200191611314565b820191906000526020600020905b8154815290600101906020018083116112f757829003601f168201915b5050505050815260200160018201548152602001600282015481526020016003820154815260200160048201805461134b906120ac565b80601f0160208091040260200160405190810160405280929190818152602001828054611377906120ac565b80156113c45780601f10611399576101008083540402835291602001916113c4565b820191906000526020600020905b8154815290600101906020018083116113a757829003601f168201915b505050505081526020016005820180546113dd906120ac565b80601f0160208091040260200160405190810160405280929190818152602001828054611409906120ac565b80156114565780601f1061142b57610100808354040283529160200191611456565b820191906000526020600020905b81548152906001019060200180831161143957829003601f168201915b505050505081526020016006820160009054906101000a900473ffffffffffffffffffffffffffffffffffffffff1673ffffffffffffffffffffffffffffffffffffffff1673ffffffffffffffffffffffffffffffffffffffff1681526020016007820180546114c5906120ac565b80601f01602080910402602001604051908101604052809291908181526020018280546114f1906120ac565b801561153e5780601f106115135761010080835404028352916020019161153e565b820191906000526020600020905b81548152906001019060200180831161152157829003601f168201915b50505050508152602001600882018054611557906120ac565b80601f0160208091040260200160405190810160405280929190818152602001828054611583906120ac565b80156115d05780601f106115a5576101008083540402835291602001916115d0565b820191906000526020600020905b8154815290600101906020018083116115b357829003601f168201915b50505050508152505081526020019060010190611267565b5050505090506000815190506000811461162c578160018261160a91906124fc565b8151811061161b5761161a6121be565b5b60200260200101519250505061163b565b6116346116f9565b8093505050505b919050565b60008081548092919061165290612530565b9190505550565b6105f98061257983390190565b828054611672906120ac565b90600052602060002090601f01602090048101928261169457600085556116db565b82601f106116ad57805160ff19168380011785556116db565b828001600101855582156116db579182015b828111156116da5782518255916020019190600101906116bf565b5b5090506116e8919061175b565b5090565b6105f980612b7283390190565b604051806101200160405280606081526020016000815260200160008152602001600081526020016060815260200160608152602001600073ffffffffffffffffffffffffffffffffffffffff16815260200160608152602001606081525090565b5b8082111561177457600081600090555060010161175c565b5090565b6000604051905090565b600080fd5b600080fd5b6000819050919050565b61179f8161178c565b81146117aa57600080fd5b50565b6000813590506117bc81611796565b92915050565b600080fd5b600080fd5b6000601f19601f8301169050919050565b7f4e487b7100000000000000000000000000000000000000000000000000000000600052604160045260246000fd5b611815826117cc565b810181811067ffffffffffffffff82111715611834576118336117dd565b5b80604052505050565b6000611847611778565b9050611853828261180c565b919050565b600067ffffffffffffffff821115611873576118726117dd565b5b61187c826117cc565b9050602081019050919050565b82818337600083830152505050565b60006118ab6118a684611858565b61183d565b9050828152602081018484840111156118c7576118c66117c7565b5b6118d2848285611889565b509392505050565b600082601f8301126118ef576118ee6117c2565b5b81356118ff848260208601611898565b91505092915050565b600073ffffffffffffffffffffffffffffffffffffffff82169050919050565b600061193382611908565b9050919050565b61194381611928565b811461194e57600080fd5b50565b6000813590506119608161193a565b92915050565b600080600080600060a0868803121561198257611981611782565b5b6000611990888289016117ad565b95505060206119a1888289016117ad565b945050604086013567ffffffffffffffff8111156119c2576119c1611787565b5b6119ce888289016118da565b935050606086013567ffffffffffffffff8111156119ef576119ee611787565b5b6119fb888289016118da565b9250506080611a0c88828901611951565b9150509295509295909350565b600060208284031215611a2f57611a2e611782565b5b6000611a3d848285016117ad565b91505092915050565b600081519050919050565b600082825260208201905092915050565b6000819050602082019050919050565b600081519050919050565b600082825260208201905092915050565b60005b83811015611aac578082015181840152602081019050611a91565b83811115611abb576000848401525b50505050565b6000611acc82611a72565b611ad68185611a7d565b9350611ae6818560208601611a8e565b611aef816117cc565b840191505092915050565b611b038161178c565b82525050565b611b1281611928565b82525050565b6000610120830160008301518482036000860152611b368282611ac1565b9150506020830151611b4b6020860182611afa565b506040830151611b5e6040860182611afa565b506060830151611b716060860182611afa565b5060808301518482036080860152611b898282611ac1565b91505060a083015184820360a0860152611ba38282611ac1565b91505060c0830151611bb860c0860182611b09565b5060e083015184820360e0860152611bd08282611ac1565b915050610100830151848203610100860152611bec8282611ac1565b9150508091505092915050565b6000611c058383611b18565b905092915050565b6000602082019050919050565b6000611c2582611a46565b611c2f8185611a51565b935083602082028501611c4185611a62565b8060005b85811015611c7d5784840389528151611c5e8582611bf9565b9450611c6983611c0d565b925060208a01995050600181019050611c45565b50829750879550505050505092915050565b60006020820190508181036000830152611ca98184611c1a565b905092915050565b60008060008060008060008060006101208a8c031215611cd457611cd3611782565b5b60008a013567ffffffffffffffff811115611cf257611cf1611787565b5b611cfe8c828d016118da565b9950506020611d0f8c828d016117ad565b9850506040611d208c828d016117ad565b9750506060611d318c828d016117ad565b96505060808a013567ffffffffffffffff811115611d5257611d51611787565b5b611d5e8c828d016118da565b95505060a08a013567ffffffffffffffff811115611d7f57611d7e611787565b5b611d8b8c828d016118da565b94505060c08a013567ffffffffffffffff811115611dac57611dab611787565b5b611db88c828d016118da565b93505060e08a013567ffffffffffffffff811115611dd957611dd8611787565b5b611de58c828d016118da565b925050610100611df78c828d01611951565b9150509295985092959850929598565b60008060408385031215611e1e57611e1d611782565b5b6000611e2c858286016117ad565b9250506020611e3d858286016117ad565b9150509250929050565b600082825260208201905092915050565b6000611e6382611a72565b611e6d8185611e47565b9350611e7d818560208601611a8e565b611e86816117cc565b840191505092915050565b611e9a8161178c565b82525050565b611ea981611928565b82525050565b6000610120820190508181036000830152611eca818c611e58565b9050611ed9602083018b611e91565b611ee6604083018a611e91565b611ef36060830189611e91565b8181036080830152611f058188611e58565b905081810360a0830152611f198187611e58565b9050611f2860c0830186611ea0565b81810360e0830152611f3a8185611e58565b9050818103610100830152611f4f8184611e58565b90509a9950505050505050505050565b6000602082019050611f746000830184611e91565b92915050565b6000610120830160008301518482036000860152611f988282611ac1565b9150506020830151611fad6020860182611afa565b506040830151611fc06040860182611afa565b506060830151611fd36060860182611afa565b5060808301518482036080860152611feb8282611ac1565b91505060a083015184820360a08601526120058282611ac1565b91505060c083015161201a60c0860182611b09565b5060e083015184820360e08601526120328282611ac1565b91505061010083015184820361010086015261204e8282611ac1565b9150508091505092915050565b600060208201905081810360008301526120758184611f7a565b905092915050565b7f4e487b7100000000000000000000000000000000000000000000000000000000600052602260045260246000fd5b600060028204905060018216806120c457607f821691505b6020821081036120d7576120d661207d565b5b50919050565b60008160e01c9050919050565b600060033d11156121095760046000803e6121066000516120dd565b90505b90565b600060443d106121995761211e611778565b60043d036004823e80513d602482011167ffffffffffffffff82111715612146575050612199565b808201805167ffffffffffffffff8111156121645750505050612199565b80602083010160043d038501811115612181575050505050612199565b6121908260200185018661180c565b82955050505050505b90565b600060208201905081810360008301526121b68184611e58565b905092915050565b7f4e487b7100000000000000000000000000000000000000000000000000000000600052603260045260246000fd5b600081549050919050565b60008190508160005260206000209050919050565b60008190508160005260206000209050919050565b6000815461222f816120ac565b6122398186611a7d565b94506001821660008114612254576001811461226657612299565b60ff1983168652602086019350612299565b61226f8561220d565b60005b8381101561229157815481890152600182019150602081019050612272565b808801955050505b50505092915050565b60008160001c9050919050565b6000819050919050565b60006122cc6122c7836122a2565b6122af565b9050919050565b600073ffffffffffffffffffffffffffffffffffffffff82169050919050565b6000612306612301836122a2565b6122d3565b9050919050565b600061012083016000808401858303600087015261232b8382612222565b9250506001840154905061233e816122b9565b61234b6020870182611afa565b506002840154905061235c816122b9565b6123696040870182611afa565b506003840154905061237a816122b9565b6123876060870182611afa565b5060048401858303608087015261239e8382612222565b9250506005840185830360a08701526123b78382612222565b925050600684015490506123ca816122f3565b6123d760c0870182611b09565b506007840185830360e08701526123ee8382612222565b925050600884018583036101008701526124088382612222565b925050819250505092915050565b6000612422838361230d565b905092915050565b6000600982019050919050565b6000612442826121ed565b61244c8185611a51565b93508360208202850161245e856121f8565b8060005b858110156124995784840389528161247a8582612416565b94506124858361242a565b925060208a01995050600181019050612462565b50829750879550505050505092915050565b600060208201905081810360008301526124c58184612437565b905092915050565b7f4e487b7100000000000000000000000000000000000000000000000000000000600052601160045260246000fd5b60006125078261178c565b91506125128361178c565b925082821015612525576125246124cd565b5b828203905092915050565b600061253b8261178c565b91507fffffffffffffffffffffffffffffffffffffffffffffffffffffffffffffffff820361256d5761256c6124cd565b5b60018201905091905056fe608060405234801561001057600080fd5b506105d9806100206000396000f3fe608060405234801561001057600080fd5b506004361061002b5760003560e01c80634851df6014610030575b600080fd5b61004a600480360381019061004591906104dd565b61004c565b005b6000815103610090576040517f08c379a000000000000000000000000000000000000000000000000000000000815260040161008790610583565b60405180910390fd5b50565b6000604051905090565b600080fd5b600080fd5b600080fd5b6000601f19601f8301169050919050565b7f4e487b7100000000000000000000000000000000000000000000000000000000600052604160045260246000fd5b6100f5826100ac565b810181811067ffffffffffffffff82111715610114576101136100bd565b5b80604052505050565b6000610127610093565b905061013382826100ec565b919050565b600067ffffffffffffffff821115610153576101526100bd565b5b602082029050602081019050919050565b600080fd5b600080fd5b600080fd5b600080fd5b600067ffffffffffffffff821115610193576101926100bd565b5b61019c826100ac565b9050602081019050919050565b82818337600083830152505050565b60006101cb6101c684610178565b61011d565b9050828152602081018484840111156101e7576101e6610173565b5b6101f28482856101a9565b509392505050565b600082601f83011261020f5761020e6100a7565b5b813561021f8482602086016101b8565b91505092915050565b6000819050919050565b61023b81610228565b811461024657600080fd5b50565b60008135905061025881610232565b92915050565b600073ffffffffffffffffffffffffffffffffffffffff82169050919050565b60006102898261025e565b9050919050565b6102998161027e565b81146102a457600080fd5b50565b6000813590506102b681610290565b92915050565b600061012082840312156102d3576102d2610169565b5b6102de61012061011d565b9050600082013567ffffffffffffffff8111156102fe576102fd61016e565b5b61030a848285016101fa565b600083015250602061031e84828501610249565b602083015250604061033284828501610249565b604083015250606061034684828501610249565b606083015250608082013567ffffffffffffffff81111561036a5761036961016e565b5b610376848285016101fa565b60808301525060a082013567ffffffffffffffff81111561039a5761039961016e565b5b6103a6848285016101fa565b60a08301525060c06103ba848285016102a7565b60c08301525060e082013567ffffffffffffffff8111156103de576103dd61016e565b5b6103ea848285016101fa565b60e08301525061010082013567ffffffffffffffff81111561040f5761040e61016e565b5b61041b848285016101fa565b6101008301525092915050565b600061043b61043684610138565b61011d565b9050808382526020820190506020840283018581111561045e5761045d610164565b5b835b818110156104a557803567ffffffffffffffff811115610483576104826100a7565b5b80860161049089826102bc565b85526020850194505050602081019050610460565b5050509392505050565b600082601f8301126104c4576104c36100a7565b5b81356104d4848260208601610428565b91505092915050565b6000602082840312156104f3576104f261009d565b5b600082013567ffffffffffffffff811115610511576105106100a2565b5b61051d848285016104af565b91505092915050565b600082825260208201905092915050565b7f54686973206974656d206973206e6f7420696e20746865204c69737400000000600082015250565b600061056d601c83610526565b915061057882610537565b602082019050919050565b6000602082019050818103600083015261059c81610560565b905091905056fea26469706673582212202b6506603ca3066aaaf57cda00f83ba74315b6adb46548ae2a528d1ab4c4a36064736f6c634300080d0033608060405234801561001057600080fd5b506105d9806100206000396000f3fe608060405234801561001057600080fd5b506004361061002b5760003560e01c80631502cf0b14610030575b600080fd5b61004a600480360381019061004591906104dd565b61004c565b005b6000815114610090576040517f08c379a000000000000000000000000000000000000000000000000000000000815260040161008790610583565b60405180910390fd5b50565b6000604051905090565b600080fd5b600080fd5b600080fd5b6000601f19601f8301169050919050565b7f4e487b7100000000000000000000000000000000000000000000000000000000600052604160045260246000fd5b6100f5826100ac565b810181811067ffffffffffffffff82111715610114576101136100bd565b5b80604052505050565b6000610127610093565b905061013382826100ec565b919050565b600067ffffffffffffffff821115610153576101526100bd565b5b602082029050602081019050919050565b600080fd5b600080fd5b600080fd5b600080fd5b600067ffffffffffffffff821115610193576101926100bd565b5b61019c826100ac565b9050602081019050919050565b82818337600083830152505050565b60006101cb6101c684610178565b61011d565b9050828152602081018484840111156101e7576101e6610173565b5b6101f28482856101a9565b509392505050565b600082601f83011261020f5761020e6100a7565b5b813561021f8482602086016101b8565b91505092915050565b6000819050919050565b61023b81610228565b811461024657600080fd5b50565b60008135905061025881610232565b92915050565b600073ffffffffffffffffffffffffffffffffffffffff82169050919050565b60006102898261025e565b9050919050565b6102998161027e565b81146102a457600080fd5b50565b6000813590506102b681610290565b92915050565b600061012082840312156102d3576102d2610169565b5b6102de61012061011d565b9050600082013567ffffffffffffffff8111156102fe576102fd61016e565b5b61030a848285016101fa565b600083015250602061031e84828501610249565b602083015250604061033284828501610249565b604083015250606061034684828501610249565b606083015250608082013567ffffffffffffffff81111561036a5761036961016e565b5b610376848285016101fa565b60808301525060a082013567ffffffffffffffff81111561039a5761039961016e565b5b6103a6848285016101fa565b60a08301525060c06103ba848285016102a7565b60c08301525060e082013567ffffffffffffffff8111156103de576103dd61016e565b5b6103ea848285016101fa565b60e08301525061010082013567ffffffffffffffff81111561040f5761040e61016e565b5b61041b848285016101fa565b6101008301525092915050565b600061043b61043684610138565b61011d565b9050808382526020820190506020840283018581111561045e5761045d610164565b5b835b818110156104a557803567ffffffffffffffff811115610483576104826100a7565b5b80860161049089826102bc565b85526020850194505050602081019050610460565b5050509392505050565b600082601f8301126104c4576104c36100a7565b5b81356104d4848260208601610428565b91505092915050565b6000602082840312156104f3576104f261009d565b5b600082013567ffffffffffffffff811115610511576105106100a2565b5b61051d848285016104af565b91505092915050565b600082825260208201905092915050565b7f476976656e2073657269616c20494420697320616c72656164792074616b656e600082015250565b600061056d602083610526565b915061057882610537565b602082019050919050565b6000602082019050818103600083015261059c81610560565b905091905056fea2646970667358221220e8ad0af764c3f747c27b507867b5e605d7c7786e944a5469c3ee0b4d281c5af864736f6c634300080d0033a26469706673582212202b7a264180f1e9d1a59c3add00d9cc579b3326309cc6ccffa4935388af08e8ea64736f6c634300080d0033",
  "immutableReferences": {},
  "source": "//SPDX-License-Identifier: MIT\r\npragma solidity ^0.8.0;\r\n\r\nlibrary Product_Lib{\r\n  \r\n  struct Product {\r\n    string name;\r\n    uint256 manufacturingDate;\r\n    uint256 transferDate;\r\n    uint256 expiryDate;\r\n    string currentOwner;\r\n    string OwnerlicenseNumber;\r\n    address currentOwnerHash;\r\n    string MedicineID;\r\n    string qrCode;\r\n  }\r\n}\r\n\r\ncontract Product_Exist {\r\n  function checkSerialNumber(Product_Lib.Product[] memory product) public pure {\r\n    require(product.length == 0, \"Given serial ID is already taken\");\r\n  }\r\n}\r\n\r\ncontract Product_Exist_For_Updating {\r\n  function exist(Product_Lib.Product[] memory product) public pure {\r\n    require(product.length != 0, \"This item is not in the List\");\r\n  }\r\n}\r\n\r\n\r\ncontract ProductVerification { \r\n    \r\n    uint256 counter;\r\n    address ownerHash;\r\n    \r\n    constructor() public {\r\n      require(msg.sender != address(0), \"no-owner-provided\");\r\n      ownerHash = msg.sender;\r\n      counter = 100000;\r\n    }\r\n     \r\n    mapping(uint => Product_Lib.Product[]) public products;\r\n    \r\n    event ErrorLogging(string reason);\r\n    function addProduct(string memory _name, uint256 _manufacturingDate, uint256 _transferDate, uint256 _expiryDate, string memory _currentOwner, string memory _licenseNumber, string memory _qrCode,string memory _medicineID, address _currentOwnerHash ) public payable{\r\n    \r\n      Product_Exist exist = new Product_Exist();\r\n      \r\n      try exist.checkSerialNumber(products[counter]){\r\n        products[counter].push(Product_Lib.Product(_name, _manufacturingDate, _transferDate, _expiryDate, _currentOwner, _licenseNumber, _currentOwnerHash, _medicineID, _qrCode));\r\n        incrementcounter(); \r\n      } \r\n      catch Error(string memory reason){\r\n        emit  ErrorLogging(reason);\r\n      }\r\n    }\r\n    \r\n    event ErrorLoggingWhileUpdating(string reason);\r\n    function updateOwnership(uint256 index, uint256 _transferDate,string memory _updateOwner, string memory _licenseNumber, address _updateOwnerHash) public payable{\r\n      Product_Lib.Product[] memory product = products[index];\r\n      \r\n      Product_Exist_For_Updating updating_allowed = new Product_Exist_For_Updating();\r\n\r\n      try updating_allowed.exist(product){\r\n        products[index].push(Product_Lib.Product(product[0].name, product[0].manufacturingDate, _transferDate, product[0].expiryDate, _updateOwner, _licenseNumber, _updateOwnerHash, product[0].MedicineID, product[0].qrCode));\r\n      }\r\n\r\n      catch Error(string memory reason){\r\n        emit  ErrorLoggingWhileUpdating(reason);\r\n      }\r\n    }\r\n\r\n    function returnSize() public view returns(uint){\r\n      return counter;\r\n    }\r\n\r\n    function returnDetails(uint index) public view returns(Product_Lib.Product[] memory){\r\n      return products[index];\r\n    }\r\n\r\n    function currentOwner(uint index) public view returns(Product_Lib.Product memory){\r\n      Product_Lib.Product[] memory product = products[index];\r\n      uint256 len = product.length;\r\n      if(len!=0){\r\n        return product[len-1];\r\n      }else{\r\n        Product_Lib.Product memory dummyProduct;\r\n        return dummyProduct;\r\n      }\r\n    }\r\n\r\n    function incrementcounter() private{\r\n      counter++;\r\n    }\r\n}",
  "sourcePath": "C:\\Users\\Bharat Swami\\OneDrive\\Desktop\\kaustubh\\positive_slope\\contracts\\ProductVerification.sol",
  "compiler": {
    "name": "solc",
    "version": "0.8.13+commit.abaa5c0e.Emscripten.clang"
  },
  "schemaVersion": "3.4.9",
  "updatedAt": "2023-04-08T19:58:26.915Z",
  "networkType": "ethereum",
  "devdoc": {
    "kind": "dev",
    "methods": {},
    "version": 1
  },
  "userdoc": {
    "kind": "user",
    "methods": {},
    "version": 1
  }
}