{
  "contractName": "Product_Exist_For_Updating",
  "abi": [
    {
      "inputs": [
        {
          "components": [
            {
              "internalType": "string",
              "name": "name",
              "type": "string"
            },
            {
              "internalType": "uint256",
              "name": "manufacturingDate",
              "type": "uint256"
            },
            {
              "internalType": "uint256",
              "name": "transferDate",
              "type": "uint256"
            },
            {
              "internalType": "uint256",
              "name": "expiryDate",
              "type": "uint256"
            },
            {
              "internalType": "string",
              "name": "currentOwner",
              "type": "string"
            },
            {
              "internalType": "string",
              "name": "OwnerlicenseNumber",
              "type": "string"
            },
            {
              "internalType": "address",
              "name": "currentOwnerHash",
              "type": "address"
            },
            {
              "internalType": "string",
              "name": "MedicineID",
              "type": "string"
            },
            {
              "internalType": "string",
              "name": "qrCode",
              "type": "string"
            }
          ],
          "internalType": "struct Product_Lib.Product[]",
          "name": "product",
          "type": "tuple[]"
        }
      ],
      "name": "exist",
      "outputs": [],
      "stateMutability": "pure",
      "type": "function"
    }
  ],
  "bytecode": "0x608060405234801561001057600080fd5b506105d9806100206000396000f3fe608060405234801561001057600080fd5b506004361061002b5760003560e01c80634851df6014610030575b600080fd5b61004a600480360381019061004591906104dd565b61004c565b005b6000815103610090576040517f08c379a000000000000000000000000000000000000000000000000000000000815260040161008790610583565b60405180910390fd5b50565b6000604051905090565b600080fd5b600080fd5b600080fd5b6000601f19601f8301169050919050565b7f4e487b7100000000000000000000000000000000000000000000000000000000600052604160045260246000fd5b6100f5826100ac565b810181811067ffffffffffffffff82111715610114576101136100bd565b5b80604052505050565b6000610127610093565b905061013382826100ec565b919050565b600067ffffffffffffffff821115610153576101526100bd565b5b602082029050602081019050919050565b600080fd5b600080fd5b600080fd5b600080fd5b600067ffffffffffffffff821115610193576101926100bd565b5b61019c826100ac565b9050602081019050919050565b82818337600083830152505050565b60006101cb6101c684610178565b61011d565b9050828152602081018484840111156101e7576101e6610173565b5b6101f28482856101a9565b509392505050565b600082601f83011261020f5761020e6100a7565b5b813561021f8482602086016101b8565b91505092915050565b6000819050919050565b61023b81610228565b811461024657600080fd5b50565b60008135905061025881610232565b92915050565b600073ffffffffffffffffffffffffffffffffffffffff82169050919050565b60006102898261025e565b9050919050565b6102998161027e565b81146102a457600080fd5b50565b6000813590506102b681610290565b92915050565b600061012082840312156102d3576102d2610169565b5b6102de61012061011d565b9050600082013567ffffffffffffffff8111156102fe576102fd61016e565b5b61030a848285016101fa565b600083015250602061031e84828501610249565b602083015250604061033284828501610249565b604083015250606061034684828501610249565b606083015250608082013567ffffffffffffffff81111561036a5761036961016e565b5b610376848285016101fa565b60808301525060a082013567ffffffffffffffff81111561039a5761039961016e565b5b6103a6848285016101fa565b60a08301525060c06103ba848285016102a7565b60c08301525060e082013567ffffffffffffffff8111156103de576103dd61016e565b5b6103ea848285016101fa565b60e08301525061010082013567ffffffffffffffff81111561040f5761040e61016e565b5b61041b848285016101fa565b6101008301525092915050565b600061043b61043684610138565b61011d565b9050808382526020820190506020840283018581111561045e5761045d610164565b5b835b818110156104a557803567ffffffffffffffff811115610483576104826100a7565b5b80860161049089826102bc565b85526020850194505050602081019050610460565b5050509392505050565b600082601f8301126104c4576104c36100a7565b5b81356104d4848260208601610428565b91505092915050565b6000602082840312156104f3576104f261009d565b5b600082013567ffffffffffffffff811115610511576105106100a2565b5b61051d848285016104af565b91505092915050565b600082825260208201905092915050565b7f54686973206974656d206973206e6f7420696e20746865204c69737400000000600082015250565b600061056d601c83610526565b915061057882610537565b602082019050919050565b6000602082019050818103600083015261059c81610560565b905091905056fea26469706673582212202b6506603ca3066aaaf57cda00f83ba74315b6adb46548ae2a528d1ab4c4a36064736f6c634300080d0033",
  "immutableReferences": {},
  "source": "//SPDX-License-Identifier: MIT\r\npragma solidity ^0.8.0;\r\n\r\nlibrary Product_Lib{\r\n  \r\n  struct Product {\r\n    string name;\r\n    uint256 manufacturingDate;\r\n    uint256 transferDate;\r\n    uint256 expiryDate;\r\n    string currentOwner;\r\n    string OwnerlicenseNumber;\r\n    address currentOwnerHash;\r\n    string MedicineID;\r\n    string qrCode;\r\n  }\r\n}\r\n\r\ncontract Product_Exist {\r\n  function checkSerialNumber(Product_Lib.Product[] memory product) public pure {\r\n    require(product.length == 0, \"Given serial ID is already taken\");\r\n  }\r\n}\r\n\r\ncontract Product_Exist_For_Updating {\r\n  function exist(Product_Lib.Product[] memory product) public pure {\r\n    require(product.length != 0, \"This item is not in the List\");\r\n  }\r\n}\r\n\r\n\r\ncontract ProductVerification { \r\n    \r\n    uint256 counter;\r\n    address ownerHash;\r\n    \r\n    constructor() public {\r\n      require(msg.sender != address(0), \"no-owner-provided\");\r\n      ownerHash = msg.sender;\r\n      counter = 100000;\r\n    }\r\n     \r\n    mapping(uint => Product_Lib.Product[]) public products;\r\n    \r\n    event ErrorLogging(string reason);\r\n    function addProduct(string memory _name, uint256 _manufacturingDate, uint256 _transferDate, uint256 _expiryDate, string memory _currentOwner, string memory _licenseNumber, string memory _qrCode,string memory _medicineID, address _currentOwnerHash ) public payable{\r\n    \r\n      Product_Exist exist = new Product_Exist();\r\n      \r\n      try exist.checkSerialNumber(products[counter]){\r\n        products[counter].push(Product_Lib.Product(_name, _manufacturingDate, _transferDate, _expiryDate, _currentOwner, _licenseNumber, _currentOwnerHash, _medicineID, _qrCode));\r\n        incrementcounter(); \r\n      } \r\n      catch Error(string memory reason){\r\n        emit  ErrorLogging(reason);\r\n      }\r\n    }\r\n    \r\n    event ErrorLoggingWhileUpdating(string reason);\r\n    function updateOwnership(uint256 index, uint256 _transferDate,string memory _updateOwner, string memory _licenseNumber, address _updateOwnerHash) public payable{\r\n      Product_Lib.Product[] memory product = products[index];\r\n      \r\n      Product_Exist_For_Updating updating_allowed = new Product_Exist_For_Updating();\r\n\r\n      try updating_allowed.exist(product){\r\n        products[index].push(Product_Lib.Product(product[0].name, product[0].manufacturingDate, _transferDate, product[0].expiryDate, _updateOwner, _licenseNumber, _updateOwnerHash, product[0].MedicineID, product[0].qrCode));\r\n      }\r\n\r\n      catch Error(string memory reason){\r\n        emit  ErrorLoggingWhileUpdating(reason);\r\n      }\r\n    }\r\n\r\n    function returnSize() public view returns(uint){\r\n      return counter;\r\n    }\r\n\r\n    function returnDetails(uint index) public view returns(Product_Lib.Product[] memory){\r\n      return products[index];\r\n    }\r\n\r\n    function currentOwner(uint index) public view returns(Product_Lib.Product memory){\r\n      Product_Lib.Product[] memory product = products[index];\r\n      uint256 len = product.length;\r\n      if(len!=0){\r\n        return product[len-1];\r\n      }else{\r\n        Product_Lib.Product memory dummyProduct;\r\n        return dummyProduct;\r\n      }\r\n    }\r\n\r\n    function incrementcounter() private{\r\n      counter++;\r\n    }\r\n}",
  "sourcePath": "C:\\Users\\Bharat Swami\\OneDrive\\Desktop\\kaustubh\\positive_slope\\contracts\\ProductVerification.sol",
  "compiler": {
    "name": "solc",
    "version": "0.8.13+commit.abaa5c0e.Emscripten.clang"
  },
  "schemaVersion": "3.4.9",
  "updatedAt": "2023-04-08T18:24:30.222Z",
  "devdoc": {
    "kind": "dev",
    "methods": {},
    "version": 1
  },
  "userdoc": {
    "kind": "user",
    "methods": {},
    "version": 1
  }
}